:020000040800F2
:10000000100B0020350200088557000861520008D7
:1000100081570008411700089D6800080000000093
:10002000000000000000000000000000315A00083D
:100030004119000800000000F5570008895A00081F
:100040004F0200084F0200084F0200084F0200084C
:100050004F0200084F0200084F0200084F0200083C
:100060004F0200084F0200084F0200084518000820
:100070004F0200084F0200084F0200084F0200081C
:1000800055180008651800084F0200084F020008C4
:100090004F0200084F0200084F0200084F020008FC
:1000A0004F0200087D5B00084F0200084F02000865
:1000B0004F0200084F0200084F0200084F020008DC
:1000C0004F0200084F0200084F0200084F020008CC
:1000D0004F0200084F0200088D6800084F02000818
:1000E0004F0200084F0200084F02000800F002F81B
:1000F00000F090F80AA090E8000C82448344AAF132
:100100000107DA4501D100F085F8AFF2090EBAE82F
:100110000F0013F0010F18BFFB1A43F0010318473B
:10012000388A0000588A0000103A24BF78C878C185
:10013000FAD8520724BF30C830C144BF04680C60ED
:10014000704700000023002400250026103A28BF35
:1001500078C1FBD8520728BF30C148BF0B60704739
:100160006E2900F05382702900F09D83662908F003
:10017000DC83652908F0D983672908F0D6836129D3
:1001800008F0D58303681B0A28BF41F08001692964
:1001900000F00082642900F0FD81752900F0FA81E9
:1001A0006F2900F02B83782900F06983E92900F09A
:1001B000C582E42900F0C282F52900F0BF82EF2950
:1001C00000F02883F82900F068830368DB0928BF62
:1001D00041F08001632901F09F80732901F0A48020
:1001E000E32901F0AF80F32901F0B48000207047CB
:1001F0001FB501F009F904000020002107F05AFFA3
:10020000401C60600020002107F03EFFE0601FBD41
:1002100010B510BD01F0CAF81146FFF7E9FF07F06D
:100220005FF901F0A7F903B4FFF7F2FF03BC01F097
:10023000ABF900000948804709480047FEE7FEE7A0
:10024000FEE7FEE7FEE7FEE7FEE7FEE7FEE7FEE786
:1002500004480549054A064B70470000795B0008D1
:10026000ED00000810050020100B002010090020F0
:10027000100900207CB51D4616460C00009001D0E8
:100280002044401E074B7B442A4669460190304675
:1002900000F0D5F905461CB10020694600F0E2F9EE
:1002A00028467CBDE503000010B504780CB10A4671
:1002B00003E0002010BDA342FCD012F8013B002B4C
:1002C000F9D1401CF1E740EA010370B59B072ED13C
:1002D0004FF00136042A2AD308C810C99D1B9D433C
:1002E000121F15EAC61517D0D8B2E1B2401A50EA6B
:1002F000056110D198B2A1B2401A50EA05410AD165
:1003000023F07F4024F07F41401A50EA052102D1BA
:10031000180EA0EB146070BDA342DBD018BA21BA4E
:10032000884201D9012070BD4FF0FF3070BD0AB97D
:10033000002070BD10F8013B11F8014B63B1A342DE
:100340000AD1521E08D010F8013B11F8014B1BB125
:10035000A34201D1521EEDD1181B70BD032A40F2F9
:10036000308010F0030C00F0158011F8013BBCF157
:10037000020F624498BF11F801CB00F8013B38BF6F
:1003800011F8013BA2F1040298BF00F801CB38BF7D
:1003900000F8013B11F0030300F05483083AC0F069
:1003A000088051F8043B083A51F804CBA0E8081043
:1003B000F5E7121D5CBF51F8043B40F8043BAFF376
:1003C0000080D20724BF11F8013B11F801CB48BFD0
:1003D00011F8012B24BF00F8013B00F801CB48BF06
:1003E00000F8012B70474FF0000200B51346944609
:1003F0009646203922BFA0E80C50A0E80C50B1F17D
:100400002001BFF4F7AF090728BFA0E80C5048BF90
:100410000CC05DF804EB890028BF40F8042B08BF2E
:10042000704748BF20F8022B11F0804F18BF00F82A
:10043000012B70474FF0013C50F8042B51F8043B5E
:100440009A4221D1A2EB0C03934313EACC1317D1A8
:1004500050F8042B51F8043B9A4215D1A2EB0C033F
:10046000934313EACC130BD150F8042B51F8043BFF
:100470009A4209D1A2EB0C03934313EACC13DBD0CD
:100480004FF00000704700BFD01A01BAB1FA81F1F5
:1004900001F0180122FA01F0CB40DBB2C0B2C01A61
:1004A000C1F120012CFA01F3D11A914311EAC311D1
:1004B000E6D1704770477047704710B500F0F4FA06
:1004C000006810BD10B5044600F0EEFA046010BDDF
:1004D00070B5044685690068C10601D5302600E084
:1004E0002026C00707D070BDD4E9012130469047CF
:1004F000206A401C20626D1EF6D570BD70B50446A2
:1005000085690078C00707D170BDD4E9012120209A
:100510009047206A401C20626D1EF6D570BD0968A8
:100520004A0501D540B27047C905FCD500B27047F5
:1005300009684A0501D5C0B27047C905FCD580B22B
:10054000704770B50C460546012A05D0287880060C
:1005500000D5EA69002302E0012305E05B1C934219
:1005600002D2E05C0028F9D1A869E618C01AA86197
:10057000286A184428622846FFF7AAFF04E0D5E954
:10058000012114F8010B9047B442F8D32846FFF735
:10059000B5FF70BD2DE9F0410646002410687529AD
:1005A000314616A510D0FFF7BAFF002802DA404204
:1005B00013A507E031688A0701D512A502E04907B3
:1005C00004D511A5012401E0FFF7B2FF00210A22A2
:1005D00006F1240709E0B0FBF2FCB0FBF2F302FBEA
:1005E0001C00303078541846491C0028F3D12346AB
:1005F0002A463046BDE8F04100F09FBA00000000F6
:100600002D0000002B00000020000000116802688F
:10061000006A530501D508700AE0D30501D50880AA
:1006200006E0130603D5C217C1E9000200E0086026
:100630000120704701694A1C02610878704700B5C3
:100640008FB0CDE901310021059105497944CDE90B
:1006500003101146684600F031F90FB000BD0000EC
:10066000E5FFFFFF0A6802F8010B0A607047D1E955
:1006700000239A4202D2531C0B6010707047000096
:100680002DE9FF5F15468A460446DFF8AC80F84442
:100690000027D8E900103E46CDE9001010E03AF8F6
:1006A00016106A4602A800F059FE411C07D02178B6
:1006B000890603D5E269391891420DD80744761CA2
:1006C0002078800602D5E069B84205DDAE42E6DB5F
:1006D0003AF816000028E2D1A069C01BA0612046AC
:1006E000FFF7F6FED8E90010CDE90010002017E072
:1006F0003AF818106A4602A800F030FEB0F1FF3F49
:1007000081460BD000250DF1080B05E0D4E901214D
:100710001BF8050090476D1C4D45F7D308F101000B
:10072000B0428046E4DB206A384420622046FFF76E
:10073000E5FEBDE8FF9F0000A28200002DE9F04128
:100740008046D21D22F007020025D2E90002F529D9
:1007500015A614D0011E72F1000106DA0023D0EBB9
:10076000030063EB020211A608E0D8F800108B0723
:1007700001D50FA602E0490701D50EA601251146B5
:10078000002408F1240704E000F092F930323A55D1
:10079000641C50EA0102F7D12B46324621464046FE
:1007A000BDE8F04100F0C9B9000000002D000000D4
:1007B0002B0000002000000030B4002100F12404D0
:1007C00008E002F00705D208303542EA4372DB0840
:1007D0006554491C52EA0305F3D10468002310A2B2
:1007E000250708D504F020040C4304D0C469012374
:1007F0000CA2641EC46130BC00F09FB910B5044661
:1008000021461068FFF794FE02462046BDE81040DE
:100810000023D1E7D21D22F00701D1E90023CBE765
:100820000000000030000000F0B40D46018809050A
:1008300002D5214C7C4402E01F4C7C440E34002144
:1008400000F1240608E002F00F071209E75D42EA12
:1008500003721B097754491C52EA0307F3D102784B
:100860000023120704D5702D06D009B102231134DC
:100870002246F0BC00F061B901231034F8E770B5EE
:1008800004460D4621461068FFF752FE02462946EF
:100890002046BDE870400023C6E7D21D22F00703C2
:1008A000D3E90023C0E70368126843F02003036024
:1008B0000823C3610023B7E7048100002DE9F05F3E
:1008C000894604464FF0000ADFF874B1FB44C0F8D3
:1008D00020A02046E1688847002874D0252806D04B
:1008E000D4E901219047206A401C2062F1E70026EC
:1008F0005F462046E16888472028054607DB312D02
:1009000005D2781910F8200C08B10643F1E7B007BA
:1009100001D526F00406C4F81CA00027C4F818A0CE
:100920002A2D09D0284607F091FB38B304EB87083D
:10093000303DC8F8185019E059F8041B204604EB64
:1009400087029161E1688847012F054618D1E06967
:10095000002820DA26F020061DE0D8F8180000EB69
:10096000800005EB40003038C8F818002046E168E8
:100970008847054607F06AFB0028EED1012F0AD010
:100980002E2D08D12046E16888477F1C0546022F9E
:1009900046F02006C4DBA069002803DA404246F096
:1009A0000106A061F00701D026F010066C2D0BD0D7
:1009B000682D09D04C2D39D06A2D35D0742D35D005
:1009C0007A2D33D016E038E0E1682F46204688477C
:1009D000B842054609D16C2F26D04FF48060E168FB
:1009E000064320468847054604E06C2F1AD04FF492
:1009F000807006430DB3A5F14100192802D82035B7
:100A000046F400664A462946204626604E46FFF7D1
:100A1000A7FB80B101280BD0F61D26F0070000F1DE
:100A2000080956E74020E4E78020D8E70020D6E711
:100A300006F104094DE7284652E7206ABDE8F09F19
:100A40009480000010B5203AC0F00B80B1E8185037
:100A5000A0E81850B1E81850A0E81850203ABFF4A8
:100A6000F5AF5FEA027C24BFB1E81850A0E8185047
:100A700044BF18C918C0BDE810405FEA827C24BF9B
:100A800051F8043B40F8043B08BF7047D20728BF29
:100A900031F8023B48BF11F8012B28BF20F8023B78
:100AA00048BF00F8012B7047004870471000002035
:100AB00030B5B0F10A0271F100034FEA900E4EEA30
:100AC000817EB0EB0E0061EB91014FEA101E4EEA01
:100AD000017E10EB0E0041EB11114FEA102E4EEA91
:100AE000016E10EB0E0041EB11214FEA104E4EEA61
:100AF000014E10EB0E0041EB1141401841F1000195
:100B00004FEAD00040EA41704FEAD1014FEA810438
:100B100044EA907410EB800544EB01046D1944EB3A
:100B20000404521BA3414FF0000348BF0A3200D512
:100B300030BD401C41F1000130BD2DE9F0470D46AC
:100B400099469246044600F124080168880604D5B7
:100B5000E06921F01001216000E00120A84201DDE0
:100B6000471B00E00027A1697A1902EB0900081A67
:100B7000A0612078C00602D42046FFF7A9FC002619
:100B800008E0D4E901211AF806009047206A401CC9
:100B9000761C20624E45F4DB2078C0060AD520463C
:100BA000FFF796FC06E0D4E9012130209047206A47
:100BB000401C2062381EA7F10107F4DC07E0D4E9ED
:100BC000012118F805009047206A401C2062281E69
:100BD000A5F10105F3DC2046FFF790FC2078000624
:100BE00002D50220BDE8F0870120FBE72DE9FF4F89
:100BF0000C461E464FF0FF378BB0D2E90001DDF8FE
:100C000060800A908A46C1F30A5505B93D46002125
:100C100008464FF00000BAF1000F00F4400005DA7A
:100C200000EB80004FF4400101EA50004FEA905978
:100C3000B9F1010F00DDB9460A9850EA4A000ED01A
:100C400044F61050A5F2FF3545432F14B8F1000FBC
:100C50001ED07542291E1EDDC9F100021CE0B8F14C
:100C6000010F4FF0000001D0302103E0F24305E016
:100C70002154401CB042FBDB3046002200212154AD
:100C80000B99C1F80880C1E900200FB0BDE8F08FD2
:100C9000BD1B6D1CDEE74A4600DA694206A800F07B
:100CA000F7FB06AB93E8070003AB83E80700504669
:100CB0000A9906F0EFFD8DE80700A0F500501F38F7
:100CC00000900398002D0ADD42F21F014A460844B5
:100CD000002303A90390684607F058F809E0A0F53F
:100CE00000504A461F38002303A90390684607F0C6
:100CF00062F88DE807000004000C03D04FF0FF30CD
:100D0000410800E01046B8F1000F03D00022009225
:100D100015461EE0751E05D4FFF7CAFE3032625537
:100D20006D1EF9D5B3460122084302D000227F1C74
:100D300004E02078302801D100227F1E002A099784
:100D400084D01DE0112D07DAFFF7B2FE3032625574
:100D50006D1C50EA0102F5D1084302D00098C8B1D9
:100D60000EE00021681E05E0235C625C635422549F
:100D7000401E491C8142F7DBAB46A81B401E099070
:100D8000002004F80B000B98099AC0F80880C0E90D
:100D9000002B7AE711264FF0000857E72DE9F04FB6
:100DA00088460446D21D22F0070191B0D1E9000126
:100DB000CDE90A0107F036F902460B98C00F01D0C1
:100DC0002D2007E02068810701D52B2002E020219B
:100DD00001EAC000032A099001D0072A05DB034677
:100DE0004146204600F014FB0BE12078800601D537
:100DF000E06900E00620B8F1650F814606D0B8F141
:100E0000660F18D0B8F1670F70D131E00020B9F14A
:100E1000110F009001DB112301E009F101030AAA7F
:100E200001A90CA8FFF7E2FEDDE90C70002609F12C
:100E30000105834647E001204B4600904FF00047F4
:100E40000AAA01A90CA8FFF7D1FEDDE90DB00C99A3
:100E50005D46002610B909F101000D18B9EB050037
:100E600003D4C0F1FF3609F10105A5EB09002BE021
:100E7000B9F1010F01DA4FF001090020B9F1110FAA
:100E80000090484601DD112300E003460AAA01A9AB
:100E90000CA8FFF7ABFEDDE90C704D46002683463B
:100EA000207800070AD4AB4500DA5D4601A8012D81
:100EB00004DD411911F8011C302907D04F4502DA31
:100EC00017F1040F04DA012082460FE06D1EEEE7F1
:100ED000002F02DCED1B3E4403E0781CA84200DD3D
:100EE0007D1CB81B00F1010A4FF000472078000775
:100EF00003D4AA4501DB4FF0FF3A0021B7F1004FC0
:100F00000DF143088DF8431024D002202B23002F2D
:100F100001DA7F422D230A21021EA0F1010000DC2C
:100F20005FB197FBF1FC97FBF1F201FB1C7C1746CC
:100F30000CF1300C08F801CDEEE7A8F101000370C8
:100F40002188090501D5452100E06521A0F10108AE
:100F500000F8011C09980FA9A1EB0807FF1D00B1BB
:100F60000120411901EBEA70A1693844081A401EBA
:100F7000A0612078C00602D42046FFF7A9FA09989C
:100F800028B1D4E901219047206A401C20622078D2
:100F9000C00622D52046FFF79BFA1EE0002E04DB98
:100FA000B34502DD01A8805D00E03020D4E90121D5
:100FB0009047206A401C2062761CAAF101005FEA7B
:100FC000000A0AD100F020FAC0680168405CD4E948
:100FD00001219047206A401C2062281EA5F10105CE
:100FE000DCDC07E0D4E9012118F8010B9047206A06
:100FF000401C2062381EA7F10107F3DC2046FFF7F2
:101000007DFA032011B041E62DE9F04F04460D466C
:10101000D21D22F0070089B0D0E900974846394632
:1010200007F000F80246F80F01D02D2307E02068F2
:10103000810701D52B2302E0202101EAC0038DF8AE
:1010400020300BB1012000E00020032A824601D0AD
:10105000072A04DB2946204600F0DAF93FE1207830
:10106000800601D40D2500E0E569C7F30A560D2D71
:1010700049DA00214FEA175B08464FF00000002FC5
:1010800000F4400007DA00EB80004FF4400100EB71
:10109000D07001EA60008115012901DD4FF0FF31B8
:1010A00000224FEA850CBCF1180F06D31346ACF1B1
:1010B00018004FF08052C24003E04FF4801323FA2F
:1010C0000CF30CF10C0CBCF1200F04D3ACF1200C90
:1010D00009FA0CF001E007FA0CF000294FF0004883
:1010E00001DD18B90FE00ED140450CD319EB020910
:1010F0005F4121B9404502D19F4329EA0209BBEB78
:10110000175F00D0761C2088000502D57B48784404
:1011100002E07A487844193808AA302302F80A30E5
:10112000037C0AF10101002E0AF1020A53546A46B7
:1011300002DC4FF0300101E04FF031014FF00108C7
:101140008DF8001002D0A6F2FF3603E059EA4701FD
:1011500000D06B4E002D02DC2178090704D54FF03A
:1011600002082E218DF80110C44600210BE0C7F3C0
:1011700003433F01C35C491C6D1E02F8083005297A
:1011800008F1010801DA002DF1DC00210CE000EB90
:101190001973491C1B786D1E082902F808304FEAA4
:1011A000091908F1010801DA002DF0DC21688B062D
:1011B00002D516E0A8F10108E04505DD02EB0803C1
:1011C00013F8013C302BF5D0B8F1000F09DD02EB2C
:1011D000080313F8013C2E2B03D1090701D4A8F111
:1011E0000108002D05DD3E2102F808106D1E08F1F2
:1011F0000108407C002E02F8080008F1010804DA1A
:101200002D20764202F8080002E02B2002F80800A8
:101210000A214FF47A70864208F101080BDB96FB35
:10122000F0F3303302F8083096FBF0F308F10108D0
:1012300000FB136601E0642E0CDB642096FBF0F3E8
:10124000303302F8083096FBF0F308F1010800FB98
:10125000136601E00A2E06DB96FBF1F0303002F84F
:10126000080008F1010896FBF1F001FB1060303036
:1012700002F80800A16908F1010808EB050202EB79
:101280000A00081AA0612078C00602D42046FFF7A1
:101290001FF9216A08AE01EB0A00206204E0D4E9DC
:1012A000012116F8010B9047BAF1010AF7D2207814
:1012B000C00602D52046FFF70BF96E4609E016F886
:1012C000010B3E280FD0D4E901219047206A401C31
:1012D0002062B8F10108F2D22046FFF70FF909B0F9
:1012E0000320BDE8F08F206A2844206203E0D4E99F
:1012F0000121302090476D1EEBD3F8E7767800008F
:1013000002FCFFFF10B5436913B1AFF3008001E0A9
:10131000FFF717F9012010BD127800F124010A70BF
:1013200000224A700122EDE711684FF0FF32E9E731
:1013300010B5436913B1AFF3008001E0FFF7A0F9E6
:10134000012010BD128800F1240182840022C28491
:101350000122EDE711684FF0FF32E9E72DE9F04196
:1013600016460C46054600F047F8036893F801015D
:10137000012807D0FF2C12D8185D80B101202C70F5
:10138000BDE8F081D3F807013246214603F2071386
:10139000C7182846BC46BDE8F041002360474FF01F
:1013A000FF30EDE700487047100000207546FFF75A
:1013B000F9FFAE4605006946534620F00700854612
:1013C00018B020B5FEF744FFBDE820404FF00006FE
:1013D0004FF000074FF000084FF0000BAC46ACE8B0
:1013E000C009ACE8C009ACE8C009ACE8C00921F00C
:1013F00007018D467047000010B500F005F8001D8C
:1014000010BD00BFB16C00000048704730000020E4
:101410002DE9F0411F46044603260168072A01F41E
:10142000006004DB08B116A505E016A503E008B1CD
:1014300015A500E015A521F010002060A069C01ED0
:10144000A0610FB1401EA0612046FFF741F84FB1E7
:10145000D4E9012138469047206A401C2062C01C14
:10146000206206E0206AFAE7D4E9012115F8010BB1
:101470009047761EF8D22046FFF740F8BDE8F0818D
:101480004E414E006E616E00494E4600696E660028
:101490002DE9F047814616468AB0354878440DC894
:1014A0008DE80D0032487844801C03AC0DC884E8F8
:1014B0000D0041F69B300844372190FBF1F290FB80
:1014C000F1F5A5F1800501FB12041B3C02D5644235
:1014D000012000E00020DFF898A080460027FA44B1
:1014E000AAF1BE0A0EE0E0070AD03246684607EBD2
:1014F000470101230AEB810106F05DFC8DE807003E
:1015000064107F1C002CEED1194F7F44AE3F19E0D0
:10151000E80715D007EB04100DF1180A90E80E004B
:101520008AE80E00C068F04201D19819089032464E
:10153000012306A903A806F03EFC03AB83E80700DD
:101540006D10641C002DE3D14FF001033246694653
:10155000B8F1000F03A802D006F018FC01E006F075
:101560002AFCC9E90001C9F808200AB0BDE8F087E3
:101570007875000010B50446AFF300802046BDE842
:101580001040FEF750BE000001491820ABBEFEE738
:10159000260002007047000080B584B00290002051
:1015A0000190029800688068C00770B3FFE7029856
:1015B0000168886820F00100886001F069FC0190F2
:1015C000FFE7029800688068C007E8B1FFE701F014
:1015D0005FFC0199401A032815D3FFE702980068C1
:1015E0008068C00770B1FFE70299886A40F0100078
:1015F00088620299C86A40F00100C86201208DF833
:101600000F0006E0FFE7DCE7FFE700208DF80F00A2
:10161000FFE79DF80F0004B080BD000080B584B0E6
:101620000290002001900090029800688068C00736
:10163000002849D1FFE702980168886840F001005E
:10164000886040F20400C2F2000000684DF6836139
:10165000C4F21B31A0FB0110800C0090FFE7009842
:1016600020B1FFE7009801380090F8E701F010FC86
:101670000190FFE7029800688068C00718BBFFE789
:1016800001F006FC0199401A03281BD3FFE70298DA
:1016900000688068C007A0B9FFE70299886A40F037
:1016A000100088620299C86A40F00100C862FFE732
:1016B0000299002081F82400FFE701208DF80F0037
:1016C00006E0FFE7D6E7FFE700208DF80F00FFE711
:1016D0009DF80F0004B080BD40F26022C2F200020B
:1016E000D2E90001013041F10001C2E90001704777
:1016F00080B545F2F970C0F6000005F039FF80BDF5
:1017000080B505F04BFF80BD81B0009001B07047FF
:1017100080B582B0019005F06FFC0D20002105F02E
:10172000D7F902B080BD000080B582B0019005F00D
:1017300063FC0B20002105F0CBF902B080BD000056
:10174000FFE7FEE780B588B00790069106980799F5
:1017500006F090FD06F081FC0590059801904FF091
:101760007E51029106F0EEFC019902460298039226
:1017700007F066F80146039806F07CFD0490049893
:1017800008B080BD80B58AB08DF8270040F60040D3
:10179000C4F20100069020210791012201F060FBB4
:1017A000322001F093F9069807990022089201F07F
:1017B00057FB08988DF82600FFE79DF826009DF856
:1017C0002710884229DAFFE7C82001F07FF905F0E9
:1017D00009FC40F60040C4F201000490202105916C
:1017E000012201F03DFB40F61041C4F201010391DA
:1017F0004FF400000860322001F068F9039B049860
:10180000059980221A60002201F02AFBFFE79DF86B
:10181000260001308DF82600CFE740F60040C4F2E4
:101820000100019020210291012201F019FB3220D8
:1018300001F04CF901980299002201F011FB0AB065
:1018400080BD000080B540F29820C2F2000000F098
:101850003BFF80BD80B540F2DC20C2F2000000F00A
:1018600033FF80BD80B540F22030C2F2000000F0AE
:101870002BFF80BD84B003900291019200930398E6
:10188000C16B026C01209040486000980399096880
:10189000486003984068102809D1FFE70198039930
:1018A00009688860029803990968C86008E002988E
:1018B000039909688860019803990968C860FFE77F
:1018C00004B0704783B0029041F20400CEF20000F1
:1018D00000680190029840F20401C2F20001096818
:1018E0004DF68362C4F21B32A1FB0221890C4843EE
:1018F0000090FFE741F20400CEF200000068019979
:10190000401A0099884201D2FFE7F3E703B070471D
:101910004EF6FC51CEF20001086840F0807008607D
:1019200041F20401CEF200010020086041F2000102
:10193000CEF20001086840F0010008607047000026
:101940007047000081B0EFF3108072B60090FFE79F
:10195000FEE7000080B584B0039002910298002158
:1019600006F067FC18B9FFE700200290FFE7029835
:101970004FF07E5106F064FC20B9FFE74FF07E5037
:101980000290FFE703980068C06A01900198013057
:1019900006F086FD029906F0FFFD06F061FD00905D
:1019A000009803990968486340F25040C2F2000071
:1019B000002102F04DFF012004B080BD80B588B049
:1019C00006900020059004900390029006980290E3
:1019D000012003900720049040F26820C2F200002A
:1019E00002A900F0FDF818B1FFE7002007902DE0F4
:1019F00000200190FFE701983F2823DCFFE740F239
:101A00006820C2F20000009000F07EFC00980A21DD
:101A100000F038FB58B9FFE740F26820C2F200003E
:101A200000F0B8F90146059808440590FFE740F238
:101A30006820C2F2000000F043FDFFE7019801308A
:101A40000190D8E7059880090790FFE7079808B04C
:101A500080BD000080B586B0049000208DF80F0096
:101A60000190FFE7049890F82400012804D1FFE7D3
:101A700002208DF81700AEE00499012081F82400BF
:101A8000FFE7FFE70498FFF787FD8DF80F00049844
:101A9000FFF7C4FD8DF80F009DF80F00002840F0FF
:101AA0008F80FFE70498806A40F0020020F488509D
:101AB0000499886240F20400C2F2000000680090BD
:101AC000022001F0A3FA01460098B0FBF1F04000BB
:101AD0000190FFE7019820B1FFE7019801380190DC
:101AE000F8E704980168886840F00800886001F011
:101AF000CFF90290FFE7049800688068000700288B
:101B000022D5FFE701F0C4F90299401A0B281AD335
:101B1000FFE70498006880680007002812D5FFE7F7
:101B20000498806A40F0100020F002000499886256
:101B3000FFE70499002081F82400FFE701208DF8D9
:101B4000170048E0FFE7D6E704980168886840F08E
:101B50000400886001F09CF90290FFE70498006897
:101B600080684007002822D5FFE701F091F902992B
:101B7000401A0B281AD3FFE70498006880684007D2
:101B8000002812D5FFE70498806A40F0100020F08A
:101B9000020004998862FFE70499002081F824007C
:101BA000FFE701208DF8170015E0FFE7D6E704985E
:101BB000806A40F0010020F0020004998862FFE78B
:101BC000FFE70499002081F82400FFE79DF80F004B
:101BD0008DF81700FFE79DF8170006B080BD0000E4
:101BE00085B00390029100208DF807000090FFE778
:101BF000039890F82400012804D1FFE702208DF813
:101C00001300C3E00399012081F82400FFE7FFE7F8
:101C100002984068062812D8FFE703980068406BD6
:101C2000029A1168526802EB8202053A1F23934020
:101C300098439140084303990968486329E0029852
:101C400040680C2812D8FFE703980068006B029ADE
:101C50001168526802EB8202233A1F239340984393
:101C60009140084303990968086311E003980068EC
:101C7000C06A029A1168526802EB8202413A1F233D
:101C8000934098439140084303990968C862FFE76D
:101C9000FFE7029800680A2812D3FFE7039800685C
:101CA000C06802990A68896802EB42021E3A07235B
:101CB000934098439140084303990968C86010E035
:101CC00003980068006902990A68896802EB420279
:101CD000072393409843914008430399096808619A
:101CE000FFE702980068102805D0FFE70298006817
:101CF000112840D1FFE70398006842F20041C4F286
:101D0000010188422DD1FFE7039800688068000236
:101D1000002825D4FFE703980168886840F4000094
:101D2000886002980068102819D1FFE740F204008B
:101D3000C2F2000000684DF68361C4F21B31A0FBC3
:101D40000110800C00EB800040000090FFE700983D
:101D500020B1FFE7009801380090F8E7FFE7FFE7C0
:101D600008E00399886A40F02000886201208DF81D
:101D70000700FFE7FFE7FFE70399002081F8240051
:101D8000FFE79DF807008DF81300FFE79DF81300AB
:101D900005B0704781B0009000980068C06C01B039
:101DA0007047000080B588B0069000208DF81700BD
:101DB000049003900290069820B9FFE701208DF867
:101DC0001F00F4E00698806830B1FFE70698007DB8
:101DD00008B1FFE7FFE7FFE70698806A50B9FFE721
:101DE00006990020C862069981F82400069800F040
:101DF000E3F8FFE70698FFF7CFFB8DF8170006988A
:101E0000806AC006002800F1C480FFE79DF8170033
:101E1000002840F0BE80FFE70698806A40F002008C
:101E200020F488500699886206994868CA69104368
:101E3000097B40EA410103980843039006988168B2
:101E40000120B1F5807F019008D0FFE706988068F7
:101E50000138B0FA80F040090190FFE70199049839
:101E6000CA0740F48071002A18BF084604900698FB
:101E7000007D01281ED1FFE70698007B70B9FFE7BF
:101E8000069881694EF20000CFF6FF7000EB4130FA
:101E90000499084340F4006004900AE00699886AB7
:101EA00040F0200088620699C86A40F00100C862CC
:101EB000FFE7FFE706980068406820F4694004994E
:101EC00008430699096848600698006880684FF2E0
:101ED000FD71CFF6E171084003990843069909683E
:101EE0008860069881680120B1F5807F009008D055
:101EF000FFE7069880680138B0FA80F0400900904A
:101F0000FFE7009800F00100002818BF4FF4807030
:101F1000B0F5807F09D1FFE7069801690020CFF670
:101F2000F07000EB01500290FFE706980068C06A6D
:101F300020F470000299084306990968C86206985F
:101F40000068806840F6FE61CFF61F710840039973
:101F500088420CD1FFE706990020C8620698806A83
:101F600040F0010020F002000699886210E0069817
:101F7000806A40F0100020F00200069988620699FD
:101F8000C86A40F00100C86201208DF81700FFE721
:101F900008E00699886A40F01000886201208DF8F8
:101FA0001700FFE79DF817008DF81F00FFE79DF869
:101FB0001F0008B080BD000080B588B007900020E9
:101FC00006900590049003900798006842F2004143
:101FD000C4F20101884252D1FFE7FFE741F2180045
:101FE000C4F20200016841F400710160006800F46D
:101FF000007002900298FFE7FFE741F21800C4F278
:102000000200016841F004010160006800F0040072
:1020100001900198FFE7012003900320049040F60F
:102020000000C4F2010003A900F072FD40F2982004
:10203000C2F2000000900821C4F2020101600021F8
:10204000416081608022C2604FF4807202614FF46F
:102050008062426120228261C16100F079FC18B186
:10206000FFE7FFF76FFCFFE7FFE7079840F29821D3
:10207000C2F20001016207984862FFE7FFE708B07B
:1020800080BD000080B58CB00A90099100200890B6
:102090000790069000F0FCFE08900A98006880689F
:1020A000C00500280FD5FFE70A99886A40F0200094
:1020B0008862FFE70A99002081F82400FFE70120E9
:1020C0008DF82F001CE10A9800684068C0050028C0
:1020D00038D4FFE70A980068C06A10F4700F31D155
:1020E000FFE7FFE70A98006800688007002828D407
:1020F000FFE70998013018B3FFE7099840B1FFE7FF
:1021000000F0C6FE0899401A0999884217D9FFE7DE
:102110000A9800680068800700280FD4FFE70A9932
:10212000886A40F004008862FFE70A99002081F87D
:102130002400FFE703208DF82F00E1E0FFE7FFE731
:10214000D0E7B0E040F20400C2F200000068049062
:10215000022000F05BFF01460498B0FBF1F005900F
:102160000A980068006944F62411C2F292410842BC
:102170002BD1FFE70A980068C06844F62411C0F22A
:102180009201084221D1FFE70A9800680169002006
:1021900042F29242C1F24922114203900DD1FFE76F
:1021A0000A980068C06842F29241C0F249010840B2
:1021B000B0FA80F040090390FFE70398C107292097
:1021C000002918BF1420029039E00A9800680069BD
:1021D00042F29241C1F2492108420CD1FFE70A982C
:1021E0000068C168012042F29242C0F249021142E5
:1021F00001901CD0FFE70A9800680169002049F2AD
:102200004922C0F22402114200900DD1FFE70A9842
:102210000068C06849F24921C0F224010840B0FAC0
:1022200080F040090090FFE700980190FFE70198D7
:10223000C107FC20002918BF54200290FFE7059831
:10224000029948430690FFE707980699884229D2E9
:10225000FFE70998013008B3FFE7099840B1FFE7AD
:1022600000F016FE0899401A0999884215D9FFE72F
:102270000798069988420FD2FFE70A99886A40F0CA
:1022800004008862FFE70A99002081F82400FFE734
:1022900003208DF82F0033E0FFE7FFE707980130B8
:1022A0000790D1E7FFE70A9801686FF01200086015
:1022B0000A99886A40F4007088620A980068806809
:1022C00000F46020B0F5602F16D1FFE70A98007B7C
:1022D00090B9FFE70A99886A20F4807088620A98AA
:1022E000806AC004002806D4FFE70A99886A40F093
:1022F00001008862FFE7FFE700208DF82F00FFE76D
:102300009DF82F000CB080BD80B584B002900020F5
:102310008DF80700FFE7029890F82400012804D107
:10232000FFE702208DF80F00C5E00299012081F837
:102330002400FFE7FFE70298FFF770F98DF8070028
:102340009DF80700002840F0AA80FFE70298806A05
:1023500040F4807040F2012188430299886202981B
:10236000006842F60001C4F20101884209D1FFE78A
:1023700042F20440C4F20100006810F4702F03D050
:1023800018E00020B0B9FFE70299886A20F48010B5
:1023900088620298006840684005002809D5FFE778
:1023A0000298806A40F4805020F4005002998862BC
:1023B000FFE72CE00299886A40F480108862029856
:1023C000006842F20041C4F20101884209D0FFE7EF
:1023D0000298006842F60001C4F20101884209D166
:1023E000FFE742F20440C4F2010000684005002803
:1023F00003D40BE0012048B9FFE70298806A40F45B
:10240000805020F4005002998862FFE7FFE70298AD
:10241000806AC004002806D5FFE70299C86A20F048
:102420000600C86203E002990020C862FFE7FFE7E8
:102430000299002081F82400FFE7029801686FF0FC
:102440000200086002980068806800F46020B0F51F
:10245000602F1CD1FFE70298006842F60001C4F229
:102460000101884209D1FFE742F20440C4F20100B1
:10247000006810F4702F03D009E0002038B9FFE79E
:1024800002980168886840F4A000886006E002981D
:102490000168886840F480108860FFE706E0FFE785
:1024A0000299002081F82400FFE7FFE79DF807006C
:1024B0008DF80F00FFE79DF80F0004B080BD00000D
:1024C00080B584B0029000208DF80700FFE70298E5
:1024D00090F82400012804D1FFE702208DF80F00B6
:1024E00022E00299012081F82400FFE7FFE702982B
:1024F000FFF752F88DF807009DF8070048B9FFE78D
:102500000298806A40F0010020F4885002998862A5
:10251000FFE7FFE70299002081F82400FFE79DF81C
:1025200007008DF80F00FFE79DF80F0004B080BD95
:1025300083B0019000208DF80300019890F82100ED
:1025400002280DD0FFE7019904208863FFE7019975
:10255000002081F82000FFE701208DF80B0021E02A
:1025600001980168086820F00E0008600198016871
:10257000086820F0010008600198C16B026C01201E
:1025800090404860FFE70199012081F82100FFE7B2
:102590000199002081F82000FFE79DF803008DF8E5
:1025A0000B00FFE79DF80B0003B0704780B588B0C3
:1025B000079000208DF81B00079890F82100022852
:1025C00007D0FFE707990420886301208DF81B00DE
:1025D00076E007980168086820F00E000860079808
:1025E0000168086820F00100086007980068082169
:1025F000C4F20201884203D1FFE70120059047E0C1
:10260000079800681C21C4F20201884203D1FFE749
:102610001020049039E0079800683021C4F20201CC
:10262000884204D1FFE74FF4807003902AE00798B6
:1026300000684421C4F20201884204D1FFE74FF44C
:10264000805002901BE0079800685821C4F20201F4
:10265000884204D1FFE74FF4803001900CE00798E6
:1026600001686C22C4F202024FF08070914208BFF0
:102670004FF480100190FFE701980290FFE7029865
:102680000390FFE703980490FFE704980590FFE7A5
:1026900005980421C4F2020108600799012081F81D
:1026A0002100FFE70799002081F82000FFE7079845
:1026B000406B20B1FFE70798416B8847FFE7FFE7D2
:1026C0009DF81B0008B080BD80B58EB00D900D98B0
:1026D000C06B00680C900D98006800680B900C9817
:1026E0000D99096CC8404007002875D5FFE79DF893
:1026F0002C00400700286FD5FFE70D9800680068A0
:102700008006002807D4FFE70D980168086820F0CC
:1027100004000860FFE70D9800680821C4F2020178
:10272000884203D1FFE704200A9047E00D98006833
:102730001C21C4F20201884203D1FFE74020099026
:1027400039E00D9800683021C4F20201884204D1BA
:10275000FFE74FF4806008902AE00D98006844215C
:10276000C4F20201884204D1FFE74FF48040079091
:102770001BE00D9800685821C4F20201884204D180
:10278000FFE74FF4802006900CE00D9801686C2262
:10279000C4F202024FF08060914208BF4FF4800003
:1027A0000690FFE706980790FFE707980890FFE775
:1027B00008980990FFE709980A90FFE70A98042112
:1027C000C4F2020108600D98C06A20B1FFE70D98BD
:1027D000C16A8847FFE7B8E00C980D99096CC840BA
:1027E0008007002840F18080FFE79DF82C008007DB
:1027F000002879D5FFE70D9800680068800600285A
:102800000BD4FFE70D980168086820F00A00086003
:102810000D99012081F82100FFE70D98006808213B
:10282000C4F20201884203D1FFE70220059047E08D
:102830000D9800681C21C4F20201884203D1FFE711
:102840002020049039E00D9800683021C4F2020184
:10285000884204D1FFE74FF4007003902AE00D98FE
:1028600000684421C4F20201884204D1FFE74FF41A
:10287000005002901BE00D9800685821C4F202013C
:10288000884204D1FFE74FF4003001900CE00D982E
:1028900001686C22C4F202024FF00070914208BF3E
:1028A0004FF400100190FFE701980290FFE70298B3
:1028B0000390FFE703980490FFE704980590FFE773
:1028C00005980421C4F202010860FFE70D99002079
:1028D00081F82000FFE70D98806A20B1FFE70D988E
:1028E000816A8847FFE72FE00C980D99096CC84072
:1028F0000007002827D5FFE79DF82C0000070028D7
:1029000021D5FFE70D980168086820F00E000860E7
:102910000D98C26B016C012000FA01F151600D9914
:1029200088630D9981F82100FFE70D99002081F857
:102930002000FFE70D98006B20B1FFE70D98016BB9
:102940008847FFE7FFE7FFE7FFE70EB080BD000025
:1029500083B0019000200090019820B9FFE701208A
:102960008DF80B0047E0019908684FF6F872CBF636
:10297000FD7210444CF6CD42CCF6CC42A0FB0202D4
:102980006FF0030000EA9200086401990020C4F28D
:102990000200C8630199022081F8210001980068B3
:1029A00000680090009843F6F07188430090019908
:1029B0004868D1F808C0CB680A6940EA0C0018439F
:1029C00010434A6910438A691043C969014300985A
:1029D0000843009000980199096808600199002057
:1029E0008863019A012182F82110019981F8200061
:1029F0008DF80B00FFE79DF80B0003B07047000057
:102A000080B586B0049003910292019300208DF866
:102A10000300FFE7049890F82000012804D1FFE7A5
:102A200002208DF817004CE00499012081F8200065
:102A3000FFE7FFE7049890F82100012832D1FFE773
:102A40000499022081F821000499002088630498E9
:102A50000168086820F00100086004980399029A50
:102A6000019BFEF707FF0498C06A38B1FFE704989E
:102A70000168086840F00E0008600CE004980168E6
:102A8000086820F00400086004980168086840F0B5
:102A90000A000860FFE704980168086840F0010038
:102AA000086009E0FFE70499002081F82000FFE7B3
:102AB00002208DF80300FFE79DF803008DF8170052
:102AC000FFE79DF8170006B080BD000080B584B018
:102AD000039000F0DDF90290039801900198013015
:102AE00048B1FFE740F20800C2F200000178019807
:102AF00008440190FFE7FFE700F0CAF90299401A85
:102B00000199884201D2FFE7F6E704B080BD0000DA
:102B100090B00F900E9100200D900990FFE70E9855
:102B200000680D99C840002800F07F81FFE70D99EB
:102B3000012088400C900E9800680C9908400B907A
:102B40000B980C99884240F06C81FFE70E98406822
:102B50000590002851D0FFE7059801283AD0FFE7FB
:102B6000059802283FD0FFE7059803285FD0FFE7CC
:102B70000598112832D0FFE70598122838D0FFE7D2
:102B800005980021C1F21101884236D0FFE705986F
:102B90000021C1F2120188422FD0FFE705980021E1
:102BA000C1F22101884228D0FFE705980021C1F237
:102BB0002201884221D0FFE705980021C1F23101AE
:102BC00088421AD0FFE705980021C1F232018842FD
:102BD00013D02FE00E98C06809902CE00E98C068C2
:102BE0000430099027E00E98C0680830099022E070
:102BF0000E98C0680C3009901DE00E98806818B9D6
:102C0000FFE70420099011E00E988068012806D1A2
:102C1000FFE7082009900C980F99086105E008204B
:102C200009900C980F994861FFE7FFE703E0002047
:102C3000099000E0FFE70B98FF2803D8FFE70F9803
:102C4000049003E00F9804300490FFE70498089084
:102C50000B98FF2804D8FFE70D988000039006E04A
:102C60000D996FF01F0000EB81000390FFE70398C0
:102C7000079008980068079A0F21914088430999A6
:102C800091400843089908600E98C079C006002852
:102C900040F1C680FFE7FFE741F21800C4F20200EE
:102CA000016841F001010160006800F00100069038
:102CB0000698FFE70D9820F003000821C4F20101F7
:102CC00040580A900D9800F0030081000F2000FA90
:102CD00001F10A9888430A900F9840F60001C4F267
:102CE0000101884203D1FFE70020029026E00F98FF
:102CF00040F60041C4F20101884203D1FFE7012000
:102D0000019018E00F9841F20001C4F201018842DD
:102D100003D1FFE7022000900AE00F9941F2004240
:102D2000C4F201020420914208BF03200090FFE793
:102D300000980190FFE701980290FFE702980D9933
:102D400001F00301890000FA01F10A9808430A9092
:102D50000A980D9921F003010822C4F2010288505B
:102D60000E988079C006002809D5FFE70B9A40F23B
:102D70000841C4F2010108681043086008E00B9A9A
:102D800040F20841C4F20101086890430860FFE77F
:102D90000E9880798006002809D5FFE70B9A40F24B
:102DA0000C41C4F2010108681043086008E00B9A66
:102DB00040F20C41C4F20101086890430860FFE74B
:102DC0000E9880798007002809D5FFE70B9A40F21A
:102DD0000441C4F2010108681043086008E00B9A3E
:102DE00040F20441C4F20101086890430860FFE723
:102DF0000E988079C00748B1FFE70B9A40F2004176
:102E0000C4F2010108681043086008E00B9A40F220
:102E10000041C4F20101086890430860FFE7FFE742
:102E2000FFE70D9801300D9079E610B07047000073
:102E300082B00190ADF8021001988068BDF80210D0
:102E4000084204D0FFE701208DF8010003E00020D4
:102E50008DF80100FFE79DF8010002B07047000007
:102E600082B00190ADF802108DF801209DF80100AC
:102E700028B1FFE7BDF802000199086105E0BDF83F
:102E80000200000401990861FFE702B070470000EA
:102E900040F20450C2F200000068704740F208009F
:102EA000C2F20000027840F20451C2F20001086848
:102EB000104408607047000080B542F20001C4F27F
:102EC0000201086840F010000860032000F096F846
:102ED0000F2000F005F800F03BF8002080BD000056
:102EE00080B582B0009040F20400C2F20000006899
:102EF00040F20801C2F200010A784FF47A71B1FB86
:102F0000F2F1B0FBF1F000F0EDFF20B1FFE701209E
:102F10008DF8070018E000980F280DD8FFE70099FA
:102F20004FF0FF30002200F04FF8009840F20C0103
:102F3000C2F20001086003E001208DF8070003E001
:102F400000208DF80700FFE79DF8070002B080BD64
:102F500083B0FFE741F21800C4F20200016841F0BB
:102F600001010160006800F0010002900298FFE793
:102F7000FFE741F21C00C4F20200016841F08051F9
:102F80000160006800F0805001900198FFE7FFE7C2
:102F90000421C4F2010108680090009820F0E0606C
:102FA0000090009840F00070009000980860FFE7E3
:102FB00003B0704780B582B08DF807009DF9070017
:102FC00003F0AEFC02B080BD80B586B08DF817006E
:102FD000049103920020029003F0BAFC02909DF944
:102FE0001700019002980499039A02F0CDFB014664
:102FF000019803F0B5FC06B080BD000080B582B03A
:103000000190019803F0CEFC02B080BD80B588B07D
:103010000790002006900590049003900290079876
:103020000190012866D0FFE70198022800F0A780F0
:10303000FFE70198102840F0B280FFE741F204005A
:10304000C4F202000068039041F20000C4F20200E2
:103050000068C00100284CD5FFE70398C0F3834106
:1030600048F64820C0F60000405C04909DF80E0031
:10307000C007F0B1FFE741F20400C4F202000068AB
:10308000C0F3404148F65820C0F60000405C06906E
:103090009DF80E00C00758B1FFE7069942F20040C4
:1030A000C0F2F400B0FBF1F0049948430590FFE74B
:1030B00007E0049840F60011C0F23D014843059036
:1030C000FFE741F20400C4F2020000684002002859
:1030D00003D5FFE7059802900AE0059840004AF6FC
:1030E000AB21CAF6AA21A0FB011040080290FFE71D
:1030F000FFE755E041F22000C4F2020000680390AF
:10310000039800F44070B0F5807F0AD1FFE79DF886
:103110000C008007002804D5FFE74FF40040029020
:103120002CE0039800F44070B0F5007F0DD1FFE76C
:1031300041F22400C4F2020000688007002804D590
:10314000FFE749F64040029017E0039800F4407012
:10315000B0F5407F0FD1FFE741F20000C4F202005A
:1031600000688003002806D5FFE74EF64800C0F24D
:103170000100029000E0FFE7FFE7FFE710E000F04A
:103180003BFA41F20401C4F20201096801F4404231
:10319000022101EB5231B0FBF1F0029000E0FFE7B9
:1031A000029808B080BD000080B586B00490002071
:1031B0000390029004980078C007002800F0AC80CB
:1031C000FFE700208DF8070041F21C00C4F2020066
:1031D0000068C000002813D4FFE7FFE741F21C009D
:1031E000C4F20200016841F080510160006800F003
:1031F000805000900098FFE701208DF80700FFE75E
:1032000047F20000C4F200000068C005002822D484
:10321000FFE747F20001C4F20001086840F4807043
:103220000860FFF735FE0390FFE747F20000C4F2A5
:1032300000000068C00500280CD4FFE7FFF728FE57
:103240000399401A652804D3FFE703208DF817007F
:103250008AE0EAE7FFE741F22000C4F202000068DA
:1032600000F4407002900298E0B3FFE702980499DE
:10327000496801F44071884234D0FFE741F22001EF
:10328000C4F20201086820F44070029040F240420B
:10329000C4F24222012010600020106002980860F1
:1032A0009DF80800C007E0B1FFE7FFF7F1FD0390CC
:1032B000FFE741F22000C4F2020000688007002806
:1032C0000ED4FFE7FFF7E4FD0399401A41F289317C
:1032D000884204D3FFE703208DF8170044E0E8E7B5
:1032E000FFE7FFE741F22001C4F20201086820F481
:1032F0004070049A5268104308609DF80700012846
:1033000009D1FFE741F21C01C4F20201086820F074
:1033100080500860FFE7FFE70498007880070028E6
:103320000CD5FFE741F20401C4F20201086820F461
:103330004040049A926810430860FFE704980078C0
:10334000C00600280CD5FFE741F20401C4F20201D7
:10335000086820F48000049AD26810430860FFE7F0
:1033600000208DF81700FFE79DF8170006B080BD1C
:1033700080B584B002900191029820B9FFE7012046
:103380008DF80F001BE1019842F20001C4F2020126
:10339000096801F00701884216D9FFE742F20000F0
:1033A000C4F20200016821F00701019A1143016093
:1033B000006800F007000199884204D0FFE701206F
:1033C0008DF80F00FBE0FFE70298007880070028E7
:1033D0002AD5FFE7029800784007002809D5FFE7C3
:1033E00041F20401C4F20201086840F4E0600860A0
:1033F000FFE7029800780007002809D5FFE741F2AF
:103400000401C4F20201086840F460500860FFE75C
:1034100041F20401C4F20201086820F0F000029AAF
:10342000926810430860FFE702980078C007002800
:1034300060D0FFE70298406801280ED1FFE741F213
:103440000000C4F2020000688003002804D4FFE7F3
:1034500001208DF80F00B2E021E0029840680228B8
:103460000ED1FFE741F20000C4F2020000688001C3
:10347000002804D4FFE701208DF80F009FE00DE045
:1034800041F20000C4F2020000688007002804D462
:10349000FFE701208DF80F0091E0FFE7FFE741F221
:1034A0000401C4F20201086820F00300029A526885
:1034B00010430860FFF7ECFC0090FFE741F20400C6
:1034C000C4F20200006800F00C0002994968B0EBF9
:1034D000810F0ED0FFE7FFF7DBFC0099401A41F2A5
:1034E0008931884204D3FFE703208DF80F0066E09E
:1034F000E4E7FFE7019842F20001C4F20201096823
:1035000001F00701884216D2FFE742F20000C4F240
:103510000200016821F00701019A1143016000686F
:1035200000F007000199884204D0FFE701208DF8E0
:103530000F0044E0FFE702980078400700280CD510
:10354000FFE741F20401C4F20201086820F4E060E0
:10355000029AD26810430860FFE7029800780007DB
:1035600000280DD5FFE741F20401C4F2020108680A
:1035700020F46050029A126940EAC2000860FFE736
:1035800000F04CF841F20401C4F202010968C9B22A
:103590000A0948F63021C0F60001895CC84040F2B3
:1035A0000401C2F20001086040F20C00C2F2000007
:1035B0000068FFF795FC00208DF80F00FFE79DF8ED
:1035C0000F0004B080BD000040F20400C2F2000011
:1035D0000068704780B5FFF7F7FF41F20401C4F2BD
:1035E00002010968C1F3022248F64021C0F6000139
:1035F000895CC84080BD000080B5FFF7E5FF41F25F
:103600000401C4F202010968C1F3C22248F6402154
:10361000C0F60001895CC84080BD000086B0002073
:103620000590049003900290019041F20400C4F2CE
:10363000020000680590059800F00C00014600911A
:1036400000283FD0FFE70098042804D0FFE7009847
:10365000082806D037E042F20040C0F2F4000190A2
:1036600037E00598C0F3834148F65A20C0F60000C1
:10367000405C02909DF81600C007C0B1FFE741F220
:103680000400C4F202000068C0F3404148F66A201A
:10369000C0F60000405C0490029842F20041C0F283
:1036A000F40148430499B0FBF1F0039007E002985D
:1036B00040F60011C0F23D0148430390FFE7039834
:1036C000019006E0FFE741F20020C0F27A0001908D
:1036D000FFE7019806B0704780B586B00490049863
:1036E00020B9FFE701208DF817002EE30498007839
:1036F000C007002800F0AE80FFE741F20400C4F2EA
:103700000200006800F00C00042813D0FFE741F22B
:103710000400C4F20200006800F00C0008281BD16D
:10372000FFE741F20400C4F202000068C003002871
:1037300012D5FFE741F20000C4F2020000688003E6
:10374000002808D5FFE70498406820B9FFE701206A
:103750008DF81700F9E27CE0FFE704984068B0F5C7
:10376000803F09D1FFE741F20001C4F2020108687D
:1037700040F48030086032E00498406868B9FFE7A0
:1037800041F20001C4F20201086820F480300860B0
:10379000086820F48020086020E004984068B0F5B4
:1037A000A02F0DD1FFE741F20001C4F20201086829
:1037B00040F480200860086840F4803008600CE025
:1037C00041F20001C4F20201086820F48030086070
:1037D000086820F480200860FFE7FFE7FFE7FFE7C5
:1037E00004984068D0B1FFE7FFF752FB0390FFE772
:1037F00041F20000C4F202000068800300280CD4EB
:10380000FFE7FFF745FB0399401A652804D3FFE75C
:1038100003208DF8170098E2EAE719E0FFF738FB7C
:103820000390FFE741F20000C4F202000068800349
:1038300000280CD5FFE7FFF72BFB0399401A6528FA
:1038400004D3FFE703208DF817007EE2EAE7FFE7E5
:10385000FFE7FFE7049800788007002840F18D809B
:10386000FFE741F20400C4F20200006810F00C0F00
:1038700013D0FFE741F20400C4F20200006800F038
:103880000C00082829D1FFE741F20400C4F202002D
:103890000068C003002820D4FFE741F20000C4F212
:1038A000020000688007002809D5FFE70498006936
:1038B000012804D0FFE701208DF8170045E241F20E
:1038C0000001C4F20201086820F0F800049A52696D
:1038D00040EAC2000860FFE74EE00498006958B370
:1038E000FFE70021C4F2422101200860FFF7D0FA6F
:1038F0000390FFE741F20000C4F202000068800775
:1039000000280CD4FFE7FFF7C3FA0399401A0328F5
:1039100004D3FFE703208DF8170016E2EAE741F22F
:103920000001C4F20201086820F0F800049A52690C
:1039300040EAC20008601EE00021C4F242210020DB
:103940000860FFF7A5FA0390FFE741F20000C4F218
:1039500002000068800700280CD5FFE7FFF798FAFF
:103960000399401A032804D3FFE703208DF81700BA
:10397000EBE1EAE7FFE7FFE7FFE7049800780007DD
:10398000002848D5FFE70498806918B3FFE740F2A4
:103990008041C4F2422101200860FFF779FA0390C8
:1039A000FFE741F22400C4F202000068800700280B
:1039B0000CD4FFE7FFF76CFA0399401A032804D3ED
:1039C000FFE703208DF81700BFE1EAE7012001F0CF
:1039D00025FF1FE040F28041C4F242210020086030
:1039E000FFF756FA0390FFE741F22400C4F2020009
:1039F0000068800700280CD5FFE7FFF749FA039914
:103A0000401A032804D3FFE703208DF817009CE138
:103A1000EAE7FFE7FFE7049800784007002840F155
:103A2000D880FFE700208DF8070041F21C00C4F2A7
:103A300002000068C000002813D4FFE7FFE741F24E
:103A40001C00C4F20200016841F08051016000686E
:103A500000F0805000900098FFE701208DF80700EB
:103A6000FFE747F20000C4F200000068C00500282C
:103A700022D4FFE747F20001C4F20001086840F4D5
:103A800080700860FFF704FA0390FFE747F2000038
:103A9000C4F200000068C00500280CD4FFE7FFF75F
:103AA000F7F90399401A652804D3FFE703208DF83E
:103AB00017004AE1EAE7FFE7FFE70498C06801283A
:103AC00009D1FFE741F22001C4F20201086840F089
:103AD0000100086031E00498C06868B9FFE741F26E
:103AE0002001C4F20201086820F0010008600868A3
:103AF00020F0040008601FE00498C06805280DD17C
:103B0000FFE741F22001C4F20201086840F004001E
:103B10000860086840F0010008600CE041F22001F4
:103B2000C4F20201086820F001000860086820F073
:103B300004000860FFE7FFE7FFE7FFE70498C068BD
:103B4000E0B1FFE7FFF7A4F90390FFE741F220009F
:103B5000C4F202000068800700280ED4FFE7FFF7D8
:103B600097F90399401A41F28931884204D3FFE75B
:103B700003208DF81700E8E0E8E71BE0FFF788F97D
:103B80000390FFE741F22000C4F2020000688007C2
:103B900000280ED5FFE7FFF77BF90399401A41F2A1
:103BA0008931884204D3FFE703208DF81700CCE069
:103BB000E8E7FFE79DF80700012809D1FFE741F298
:103BC0001C01C4F20201086820F080500860FFE781
:103BD000FFE70498C069002800F0B380FFE741F2D6
:103BE0000400C4F20200006800F00C00082800F095
:103BF0008280FFE70498C06902285CD1FFE760215A
:103C0000C4F2422100200860FFF742F90390FFE769
:103C100041F20000C4F202000068800100280CD5C7
:103C2000FFE7FFF735F90399401A032804D3FFE7AC
:103C300003208DF8170088E0EAE70498006AB0F5E1
:103C4000803F0CD1FFE741F20401C4F20201086891
:103C500020F40030049A926810430860FFE741F2B4
:103C60000401C4F20201086820F47410049B1A6A6B
:103C70005B6A1A43104308606021C4F242210120AC
:103C80000860FFF705F90390FFE741F20000C4F276
:103C900002000068800100280CD4FFE7FFF7F8F865
:103CA0000399401A032804D3FFE703208DF8170077
:103CB0004BE0EAE71EE06021C4F2422100200860E8
:103CC000FFF7E6F80390FFE741F20000C4F20200BC
:103CD0000068800100280CD5FFE7FFF7D9F80399A9
:103CE000401A032804D3FFE703208DF817002CE0C7
:103CF000EAE7FFE724E00498C069012804D1FFE760
:103D000001208DF8170020E041F20400C4F2020007
:103D100000680290029800F480300499096A884291
:103D200008D1FFE7029800F470100499496A8842AC
:103D300004D0FFE701208DF8170006E0FFE7FFE75A
:103D4000FFE700208DF81700FFE79DF8170006B089
:103D500080BD000080B584B00290029820B9FFE7D2
:103D600001208DF80F006DE00298406A60B9FFE70E
:103D700002984068B0F5827F01D1FFE703E0029925
:103D80000020C861FFE705E0029900200861029960
:103D90004861FFE7029900208862029890F851007C
:103DA00040B9FFE70299002081F85000029800F026
:103DB0004DF8FFE70299022081F85100029801684E
:103DC000086820F040000860029A0192116850686B
:103DD000D2F808C0D36800F482700CF4044C60443C
:103DE00003F400631844136903F002031844536991
:103DF00003F001031844936903F400731844D36972
:103E000003F038031844136A03F080031843926ADE
:103E100002F40052104308600299488B00F004003D
:103E20000968486002980168C86920F40060C861A8
:103E3000029900204865029A012182F851108DF8FC
:103E40000F00FFE79DF80F0004B080BD80B58AB079
:103E50000990002008900790069005900998006846
:103E600043F60001C4F20001884239D1FFE7FFE7C1
:103E700041F21C00C4F20200016841F4804101607B
:103E8000006800F4804004900498FFE7FFE741F2E7
:103E90001800C4F20200016841F0080101600068E6
:103EA00000F0080003900398FFE74FF420400590CE
:103EB000022006900320089040F60040C4F2010062
:103EC000019005A90291FEF723FE019802994FF493
:103ED00080420592002206920792FEF719FEFFE744
:103EE0000AB080BD80B582B00190019801F0A2FDBA
:103EF00002B080BD81B0009001B0704781B00090E9
:103F000001B0704785B003900291FFE7039890F8E5
:103F10003C00012804D1FFE702208DF813005BE08C
:103F20000399012081F83C00FFE7FFE70399022095
:103F300081F83D000398006840680190039800688C
:103F400080680090019820F070000190029801684C
:103F50000198084301900198039909684860039803
:103F6000006842F60041C4F20101884218D0FFE720
:103F700003980068B0F1804F12D0FFE70398006803
:103F800040F20041C4F20001884209D0FFE70398E3
:103F9000006840F60001C4F2000188420ED1FFE73C
:103FA000009820F080000090029841680098084333
:103FB00000900098039909688860FFE70399012041
:103FC00081F83D00FFE70399002081F83C00FFE7FE
:103FD00000208DF81300FFE79DF8130005B070472F
:103FE00080B582B00090009820B9FFE701208DF8DD
:103FF00007003FE0009890F83D0040B9FFE70099C6
:10400000002081F83C00009800F038F8FFE70099A4
:10401000022081F83D00009951F8040B01F0B6FD33
:104020000099012081F84600FFE70099012081F8FE
:104030003E00009981F83F00009981F84000009906
:1040400081F84100FFE7FFE70099012081F8420075
:10405000009981F84300009981F84400009981F8A3
:104060004500FFE70099012081F83D0000208DF810
:104070000700FFE79DF8070002B080BD80B586B05D
:1040800005900598006842F60041C4F2010188429B
:1040900019D1FFE7FFE741F21800C4F202000168FE
:1040A00041F400610160006800F40060049004982D
:1040B000FFE71920019000221146FEF785FF0198C5
:1040C000FEF778FF30E005980068B0F1804F10D11E
:1040D000FFE7FFE741F21C00C4F20200016841F073
:1040E00001010160006800F0010003900398FFE700
:1040F00019E00598006840F20041C4F200018842CE
:1041000010D1FFE7FFE741F21C00C4F20200016892
:1041100041F002010160006800F002000290029884
:10412000FFE7FFE7FFE7FFE706B080BD83B0019040
:10413000019890F83D00012804D0FFE701208DF898
:104140000B0047E00199022081F83D0001980168C9
:10415000C86840F00100C8600198006842F600415C
:10416000C4F20101884218D0FFE701980068B0F15D
:10417000804F12D0FFE70198006840F20041C4F27E
:104180000001884209D0FFE70198006840F600016D
:10419000C4F20001884212D1FFE7019800688068EC
:1041A00000F0070000900098062807D0FFE701986C
:1041B0000168086840F001000860FFE706E0019828
:1041C0000168086840F001000860FFE700208DF8F2
:1041D0000B00FFE79DF80B0003B0704780B586B079
:1041E0000490039100208DF80B00FFE7049890F8ED
:1041F0003C00012804D1FFE702208DF81700ABE056
:104200000499012081F83C00FFE7FFE704990220B0
:1042100081F83D000498006880680190019820F0C2
:1042200077000190019820F47F4001900198049953
:1042300009688860039800680090002872D0FFE742
:10424000009810286ED0FFE7009820286AD0FFE77A
:104250000098302866D0FFE70098402855D0FFE747
:104260000098502837D0FFE70098602840D0FFE73B
:10427000009870280BD0FFE70098B0F5805F05D05C
:10428000FFE70098B0F5005F16D052E055E00498C3
:104290000068039B5A689968DB6801F017FD049871
:1042A000006880680190019840F0770001900198C3
:1042B00004990968886040E004980068039B5A6884
:1042C0009968DB6801F002FD04980168886840F491
:1042D0008040886031E004980068039A5168D26891
:1042E00001F0B0FE04980068502101F009FD24E0BF
:1042F00004980068039A5168D26801F0CBFE0498D4
:104300000068602101F0FCFC17E004980068039A43
:104310005168D26801F096FE04980068402101F0CF
:10432000EFFC0AE0049800680399096801F0E8FCD2
:1043300003E001208DF80B00FFE70499012081F8CC
:104340003D00FFE70499002081F83C00FFE79DF85D
:104350000B008DF81700FFE79DF8170006B080BD31
:1043600081B0009001B0704780B584B0039003988D
:104370000068C068029003980068006901909DF889
:1043800004008007002824D5FFE79DF80800800777
:1043900000281DD5FFE7039801686FF0020008614F
:1043A000039901200877039800688069800720B18D
:1043B000FFE70398FFF7D4FF06E0039800F04CF9FD
:1043C000039800F041FAFFE7039900200877FFE720
:1043D000FFE79DF804004007002825D5FFE79DF87A
:1043E0000800400700281ED5FFE7039801686FF01A
:1043F0000400086103990220087703980068806927
:1044000010F4407F04D0FFE70398FFF7A9FF06E010
:10441000039800F021F9039800F016FAFFE70399DA
:1044200000200877FFE7FFE79DF804000007002859
:1044300024D5FFE79DF80800000700281DD5FFE7F9
:10444000039801686FF00800086103990420087759
:1044500003980068C069800720B1FFE70398FFF761
:104460007FFF06E0039800F0F7F8039800F0ECF9FE
:10447000FFE7039900200877FFE7FFE79DF80400B6
:10448000C006002825D5FFE79DF80800C0060028D3
:104490001ED5FFE7039801686FF0100008610399CB
:1044A0000820087703980068C06910F4407F04D0A2
:1044B000FFE70398FFF754FF06E0039800F0CCF8FD
:1044C000039800F0C1F9FFE7039900200877FFE7A0
:1044D000FFE79DF80400C00778B1FFE79DF80800EA
:1044E000C00748B1FFE7039801686FF00100086159
:1044F000039800F05DFAFFE7FFE79DF8040000066F
:10450000002810D5FFE79DF808000006002809D50F
:10451000FFE7039801686FF0800008610398FFF7D8
:10452000E9FCFFE7FFE79DF804004006002810D5EE
:10453000FFE79DF808004006002809D5FFE703982B
:1045400001686FF040000861039800F043FAFFE74C
:10455000FFE79DF804008006002810D5FFE79DF8CE
:1045600008008006002809D5FFE7039801686FF06E
:10457000200008610398FFF7C1FCFFE7FFE704B0E4
:1045800080BD000080B588B007900020069005909F
:104590000490039007980068B0F1804F33D1FFE793
:1045A000FFE741F21800C4F20200016841F008017F
:1045B0000160006800F0080002900298FFE74FF4E5
:1045C00080600390022004900120069040F6004095
:1045D000C4F2010003A9FEF79BFAFFE70421C4F22D
:1045E000010108680190019820F440700190019841
:1045F00040F0E0600190019840F400700190019853
:104600000860FFE726E00798006840F20041C4F226
:10461000000188421DD1FFE7FFE741F21800C4F214
:104620000200016841F004010160006800F004002C
:1046300000900098FFE740200390022004900120A2
:10464000069040F60000C4F2010003A9FEF760FAEC
:10465000FFE7FFE708B080BD81B0009001B0704770
:1046600080B586B004900391029200208DF8070077
:10467000FFE7049890F83C00012804D1FFE70220EE
:104680008DF8170089E00499012081F83C00FFE7CC
:10469000FFE7029800900C2800F270800099DFE894
:1046A00001F0076D6D6D206D6D6D3A6D6D6D530090
:1046B00004980068039901F039FB0498016888693F
:1046C00040F00800886104980168886920F00400BF
:1046D00088610398026904980168886910438861B9
:1046E00050E004980068039901F088FB0498016881
:1046F000886940F40060886104980168886920F442
:10470000806088610398026904980168886940EABA
:104710000220886136E004980068039901F0DAFB12
:1047200004980168C86940F00800C86104980168ED
:10473000C86920F00400C861039802690498016800
:10474000C8691043C8611DE004980068039901F02E
:104750002DFC04980168C86940F40060C8610498A1
:104760000168C86920F48060C861039802690498F0
:104770000168C86940EA0220C86103E001208DF8A1
:104780000700FFE7FFE70499002081F83C00FFE7FE
:104790009DF807008DF81700FFE79DF8170006B099
:1047A00080BD000080B582B00090009820B9FFE77E
:1047B00001208DF807003FE0009890F83D0040B9D7
:1047C000FFE70099002081F83C00009800F038F8DD
:1047D000FFE70099022081F83D00009951F8040B91
:1047E00001F0D4F90099012081F84600FFE7009913
:1047F000012081F83E00009981F83F00009981F87E
:104800004000009981F84100FFE7FFE7009901208F
:1048100081F84200009981F84300009981F8440032
:10482000009981F84500FFE70099012081F83D00DB
:1048300000208DF80700FFE79DF8070002B080BD5B
:1048400081B0009001B0704781B0009001B0704716
:1048500080B58AB008900791079828B9FFE70898B3
:1048600090F83E0005901CE00798042805D1FFE76A
:10487000089890F83F00049010E00798082805D1A8
:10488000FFE7089890F84000039004E0089890F83B
:1048900041000390FFE703980490FFE70498059018
:1048A000FFE70598012804D0FFE701208DF82700D5
:1048B0007AE0079828B9FFE70899022081F83E00BE
:1048C0001EE00798042806D1FFE70899022081F826
:1048D0003F00029012E00798082806D1FFE70899E8
:1048E000022081F84000019005E00899022081F83B
:1048F00041000190FFE701980290FFE70298FFE76F
:10490000089800680799012201F0C4F90898006826
:1049100042F60041C4F20101884207D1FFE708983E
:104920000168486C40F400404864FFE7089800685C
:1049300042F60041C4F20101884218D0FFE708980E
:104940000068B0F1804F12D0FFE70898006840F28D
:104950000041C4F20001884209D0FFE708980068CE
:1049600040F60001C4F20001884212D1FFE7089826
:104970000068806800F0070006900698062807D0B7
:10498000FFE708980168086840F001000860FFE749
:1049900006E008980168086840F001000860FFE739
:1049A00000208DF82700FFE79DF827000AB080BDA2
:1049B00080B582B001900198006842F60041C4F2CF
:1049C0000101884203D1FFE702F0F6FAFFE702B0E7
:1049D00080BD000081B0009001B0704780B586B006
:1049E00004900391ADF80A20049890F84200202822
:1049F00048D1FFE7039820B1FFE7BDF80A0020B9CE
:104A0000FFE701208DF8170040E0049901200863BA
:104A100004990020486304980399BDF80A2001F026
:104A2000F7FD8DF809000498006B012821D1FFE7FC
:104A3000FFE7002001900498006800680190049846
:104A40000068406801900198FFE7FFE7FFE70498DE
:104A5000006850E8030F40F010000090FFE7009955
:104A60000498026842E803100028F0D1FFE7FFE74E
:104A700003E001208DF80900FFE79DF809008DF89B
:104A8000170003E002208DF81700FFE79DF81700DC
:104A900006B080BD80B584B00390ADF80A100398CD
:104AA000006844F20041C4F20001884221D1FFE7CE
:104AB0000398406B02281BD1FFE7BDF80A2040F2A3
:104AC000E440C2F2000040F27401C2F20001019120
:104AD00002F040FCBDF80A10082001F0F9FF01992E
:104AE00040F29840C2F200004022FFF777FFFFE754
:104AF000FFE704B080BD000081B0009001B07047B6
:104B000080B592B0119011980068006810901198CB
:104B10000068C0680F901198006840690E900020EE
:104B20000D900C90109800F00F000D900D9888B922
:104B3000FFE79DF84000800600280AD5FFE79DF8B2
:104B40003C008006002804D5FFE7119801F028FCFE
:104B5000E9E1FFE70D98002800F0C280FFE79DF82B
:104B60003800C00738B9FFE7BDF83C0010F4907F6B
:104B700000F0B680FFE79DF84000C00758B1FFE79E
:104B80009DF83D00C00730B1FFE71199486C40F037
:104B900001004864FFE79DF84000400700280BD55E
:104BA000FFE79DF83800C00730B1FFE71199486C66
:104BB00040F002004864FFE79DF8400080070028AD
:104BC0000BD5FFE79DF83800C00730B1FFE711991A
:104BD000486C40F004004864FFE79DF8400000077F
:104BE000002811D5FFE79DF83C008006002805D479
:104BF000FFE79DF83800C00730B1FFE71199486C16
:104C000040F008004864FFE71198406C002866D027
:104C1000FFE79DF84000800600280AD5FFE79DF8D1
:104C20003C008006002804D5FFE7119801F0B8FB8E
:104C3000FFE7119800684069C0F380100C9011984C
:104C4000406C0007002804D4FFE70C9800283ED0F1
:104C5000FFE7119801F02AFB1198006840694006AF
:104C600000282FD5FFE7FFE7FFE71198006850E81D
:104C7000050F20F040000B90FFE70B991198026898
:104C800042E805100028F0D1FFE7FFE71198C06B5C
:104C900098B1FFE71198C16B46F2E900C0F6000039
:104CA00048631198C06BFDF781FC28B1FFE71198AC
:104CB000C06B416B8847FFE703E01198FFF71CFFCB
:104CC000FFE703E01198FFF717FFFFE706E01198F1
:104CD000FFF712FF119900204864FFE7FFE722E188
:104CE0001198006B012840F0FE80FFE79DF840001E
:104CF000C006002840F1F780FFE79DF83C00C006A1
:104D0000002840F1F080FFE7FFE700200A901198AB
:104D1000006800680A901198006840680A900A9834
:104D2000FFE71198006840694006002840F1818043
:104D3000FFE71198C06B00684068ADF82600BDF829
:104D40002600002874D0FFE7BDF826001199898D50
:104D500088426DDAFFE7BDF826001199C8851198E1
:104D6000C06B8069202858D0FFE7FFE7FFE7119864
:104D7000006850E8030F20F480700890FFE708995E
:104D80001198026842E803100028F0D1FFE7FFE71E
:104D9000FFE7FFE71198006850E8050F20F00100D9
:104DA0000790FFE707991198026842E8051000286C
:104DB000F0D1FFE7FFE7FFE7FFE71198006850E851
:104DC000050F20F040000690FFE706991198026851
:104DD00042E805100028F0D1FFE7FFE711992020F5
:104DE00081F84200119900200863FFE7FFE711985E
:104DF000006850E8030F20F010000590FFE70599C8
:104E00001198026842E803100028F0D1FFE7FFE79D
:104E10001198C06BFDF78CFBFFE7119902204863E6
:104E20001198818DC28D891A89B2FFF733FEFFE791
:104E300079E01199888DC98D401AADF8120011984A
:104E4000C08D00284ED0FFE7BDF81200002849D0E1
:104E5000FFE7FFE7FFE71198006850E8030F20F431
:104E600090700390FFE703991198026842E80310DD
:104E70000028F0D1FFE7FFE7FFE7FFE711980068A0
:104E800050E8050F20F001000290FFE70299119809
:104E9000026842E805100028F0D1FFE7FFE711990A
:104EA000202081F84200119900200863FFE7FFE706
:104EB0001198006850E8030F20F010000190FFE700
:104EC00001991198026842E803100028F0D1FFE729
:104ED000FFE71199022048631198BDF81210FFF7FF
:104EE000D9FDFFE71FE09DF84000000600280AD525
:104EF000FFE79DF83C000006002804D5FFE7119865
:104F000001F00CFC0FE09DF84000400600280AD597
:104F1000FFE79DF83C004006002804D5FFE7119804
:104F200001F00EFAFFE712B080BD000080B582B03C
:104F30000090009820B9FFE701208DF8070040E0BD
:104F40000098806908B1FFE700E0FFE7009890F85B
:104F5000410040B9FFE70099002081F84000009827
:104F600000F034F8FFE70099242081F84100009810
:104F70000168C86820F40050C860009801F0EAFA9F
:104F800000980168086920F4904008610098016861
:104F9000486920F02A00486100980168C86840F418
:104FA0000050C860009900204864009A202182F8CF
:104FB0004110009A82F84210009948638DF807006A
:104FC000FFE79DF8070002B080BD000080B58EB0FD
:104FD0000D9000200C900B900A9009900D9800689D
:104FE00044F20041C4F20001884240F08980FFE7AA
:104FF000FFE741F21C00C4F20200016841F40031F5
:105000000160006800F4003008900898FFE7FFE7AF
:1050100041F21800C4F20200016841F0040101608D
:10502000006800F0040007900798FFE7042009904B
:1050300002200A9003200C9040F60000C4F2010008
:10504000039009A90491FDF763FD039804990822D0
:105050000992002205920A920B92FDF759FD0599DB
:1050600040F2DC20C2F2000006906C22C4F2020280
:105070000260416081608022C260016141618161A2
:10508000C161FDF765FC18B1FFE7FCF75BFCFFE7CA
:10509000FFE70D9840F2DC21C2F20001C1630D98D8
:1050A0004862FFE740F22030C2F200000290802107
:1050B000C4F2020101601021416000218160802260
:1050C000C260016141618161C161FDF741FC18B1BC
:1050D000FFE7FCF737FCFFE7FFE70D9840F22031D0
:1050E000C2F2000181630D984862FFE7262001901B
:1050F00000221146FDF768FF0198FDF75BFFFFE70F
:105100000EB080BD81B0009001B0704781B00090BA
:1051100001B0704780B58AB008900791ADF81A20A9
:10512000059300200290089890F84100202840F054
:105130008180FFE7079820B1FFE7BDF81A0020B98A
:10514000FFE701208DF8270078E0089900204864E7
:105150000899212081F84100FDF79AFE0290BDF8E0
:105160001A0008998884BDF81A000899C88408981C
:105170008068B0F5805F09D1FFE70898006928B919
:10518000FFE7002004900798039004E0079804903C
:1051900000200390FFE7FFE70898C08C78B3FFE793
:1051A0000898029B05996A4611608021002201F04F
:1051B000FFFA40B1FFE70899202081F84100032061
:1051C0008DF827003AE0049858B9FFE70398008863
:1051D0006FF35F20089909684860039802300390D4
:1051E00008E004980078089909684860049801303C
:1051F0000490FFE70899C88C0138C884CCE7089868
:10520000029B05996A4611604021002201F0D0FA04
:1052100040B1FFE70899202081F8410003208DF874
:1052200027000BE00899202081F8410000208DF82C
:10523000270003E002208DF82700FFE79DF82700F4
:105240000AB080BD81B000900098006844F200412F
:10525000C4F20001884201D1FFE7FFE701B07047C7
:10526000FFE7FEE780B584B000220392029201922C
:1052700040F26820C2F20000009042F20041C4F205
:10528000010101604FF48071816001210173027599
:105290004FF46023C36142600161FCF783FD18B1E4
:1052A000FFE7FCF74FFBFFE7002001900120029091
:1052B0000720039040F26820C2F2000001A9FCF729
:1052C0008FFC18B1FFE7FCF73DFBFFE704B080BDA2
:1052D00080B586B0FFE741F21400C4F20200016815
:1052E00041F001010160006800F00100059005989F
:1052F000FFE70B200190002203921146FDF764FEA8
:105300000198FDF757FE039A102002901146FDF711
:105310005BFE0298FDF74EFE039A112004901146A1
:10532000FDF752FE0498FDF745FE06B080BD000073
:1053300080B590B000200F900E900D900C90FFE77C
:1053400041F21800C4F20200016841F0200101603E
:10535000006800F020000B900B98FFE7FFE741F298
:105360001800C4F20200016841F004010160006805
:1053700000F004000A900A98FFE7FFE741F21800E6
:10538000C4F20200016841F008010160006800F009
:10539000080009900998FFE740F60040C4F20100B8
:1053A000069041F2830101220392FDF759FD069810
:1053B0002021089100220492FDF752FD049A40F644
:1053C0000000C4F2010002904FF4F0510191FDF78A
:1053D00047FD049A06984FF49C71FDF741FD029831
:1053E00004994FF4C0720C920022C1F211020D9286
:1053F0000E910CA90791FDF78BFB039A049B06986D
:1054000007994FF03B0CCDF830C00D920E930F92E0
:10541000FDF77EFB049A069807994C230C930D9296
:105420000E92FDF775FB039A049B069807994FF4BB
:10543000805CCDF830C00D920E930F92FDF768FBA3
:10544000DDF804C00298039B049A0799CDF830C098
:105450000D930E92022205920F92FDF759FB049BC9
:10546000059A069807994FF0800CCDF830C04FF0A0
:10547000110CCDF834C00E930F92FDF749FB039B3E
:10548000059A069807994FF4807CCDF830C00D93AB
:105490000E920F92FDF73CFBDDF80CC0049B059AC1
:1054A00006980799DDF820E0CDF830E0CDF834C05B
:1054B0000E930F92FDF72CFB10B080BD80B582B02B
:1054C00040F26830C2F20000019043F60001C4F2DD
:1054D000000101604FF48271416000218160C16070
:1054E000016141614FF4007282612022C261016258
:1054F000416281620A21C162FEF72CFC18B1FFE70C
:10550000FCF720FAFFE702B080BD000080B588B04C
:105510000021009107910691059104910391029158
:1055200040F2C030C2F20000019042F60042C4F2E4
:105530000102026047224260816041F28732C2600C
:10554000016141618161FEF74BFD18B1FFE7FCF796
:10555000F9F9FFE74FF48050049040F2C030C2F2F6
:10556000000004A9FEF73AFE18B1FFE7FCF7EAF9DC
:10557000FFE700200290039040F2C030C2F200002A
:1055800002A9FEF7BFFC18B1FFE7FCF7DBF9FFE764
:1055900008B080BD80B58EB0002100910D910C91B6
:1055A0000B910A9109910891079106910591049137
:1055B00003910291019140F20840C2F200004FF0C5
:1055C00080420260416081604FF6FF72C2600161FB
:1055D0008161FEF705FD18B1FFE7FCF7B3F9FFE7BE
:1055E0004FF480500A9040F20840C2F200000AA92D
:1055F000FEF7F4FD18B1FFE7FCF7A4F9FFE740F26E
:105600000840C2F20000FFF7CDF818B1FFE7FCF741
:1056100099F9FFE700200890099040F20840C2F293
:10562000000008A9FEF76EFC18B1FFE7FCF78AF945
:10563000FFE760200190002002900390059040F267
:105640000840C2F2000001A90822FFF709F818B1CA
:10565000FFE7FCF777F9FFE740F20840C2F20000ED
:10566000FEF790FF0EB080BD80B58EB00021009196
:105670000D910C910B910A91099108910791069156
:105680000591049103910291019140F25040C2F2C0
:10569000000040F20042C4F2000202604722426071
:1056A00081602722C26001618161FEF799FC18B117
:1056B000FFE7FCF747F9FFE74FF480500A9040F20C
:1056C0005040C2F200000AA9FEF788FD18B1FFE7BA
:1056D000FCF738F9FFE740F25040C2F20000FFF754
:1056E00061F818B1FFE7FCF72DF9FFE700200890FB
:1056F000099040F25040C2F2000008A9FEF702FCF7
:1057000018B1FFE7FCF71EF9FFE7602001900022C7
:1057100002920392059240F25040C2F2000001A9A9
:10572000FEF79EFF18B1FFE7FCF70CF9FFE740F228
:105730005040C2F20000FEF725FF0EB080BD000011
:1057400080B582B040F29840C2F20000019044F26D
:105750000041C4F2000101604FF4E13141600021D9
:105760008160C16001610C2242618161C161FFF70A
:10577000DDFB18B1FFE7FCF7E5F8FFE702B080BDFD
:10578000FFE7FEE7FFE7FEE788B007900691059286
:10579000079800F0070004900498C0F1070005285E
:1057A00003D3FFE70420019004E00498C0F1070050
:1057B0000190FFE70198039004980430062803D86D
:1057C000FFE70020009003E0049803380090FFE713
:1057D0000098029006980399012202FA01F101391A
:1057E0000840029B984005999A40013A11400843AD
:1057F00008B070477047000084B0EFF3108072B6B5
:10580000039040F26020C2F20000D0E90001019153
:10581000009062B60098019904B0704782B0019080
:10582000019840F20401C2F200010968C90844F677
:10583000D352C1F26202A1FB0221890948430090C0
:10584000FFE700BFFFE70098411E00910028F8D154
:10585000FFE702B07047000080B586B043F6004015
:10586000C4F21C60059000F02BF940F23C11C2F22A
:10587000000100200870FFE740F23C10C2F2000077
:1058800000780F286ADCFFE740F23C10C2F200000B
:10589000007800F097F84FF47A70FDF717F900F0F0
:1058A00003F90A20FDF712F90020FCF787F840F20F
:1058B0007001C2F20001019108800120FCF77EF81E
:1058C0000146019840F27202C2F200020292118077
:1058D000008800F0E5FF0146029840F25822C2F22B
:1058E000000203921160008800F0DAFF024603987C
:1058F00040F2FC41C2F200010A6000680968FBF74F
:1059000021FF0490049840F20851C2F2000108609F
:10591000049840F20001C2F20001096802F089FC1B
:1059200088B9FFE7049840F20001C2F20001086064
:1059300040F23C10C2F20000007840F2B401C2F222
:1059400000010870FFE700F0BBF8FFE740F23C11F0
:10595000C2F200010878013008708DE740F2B4000F
:10596000C2F20000007800F02DF84FF47A70FDF7D5
:10597000ADF840F20001C2F200010020C4F2C620DE
:105980000860002006B080BD80B582B00020019084
:10599000FFE70198032812DCFFE7019A48F66C2024
:1059A000C0F6000000EBC20150F8320089880022E6
:1059B000FDF756FAFFE7019801300190E9E702B0E0
:1059C00080BD000080B582B08DF8070000200090F7
:1059D000FFE70098032828DCFFE79DF807000099FF
:1059E000C840C00770B1FFE7009A48F66C20C0F6C7
:1059F000000000EBC20150F8320089880122FDF757
:105A00002FFA0DE0009A48F66C20C0F6000000EB7B
:105A1000C20150F8320089880022FDF721FAFFE721
:105A2000FFE7009801300090D3E702B080BD00008E
:105A30007047000080B582B0009000980138B0F146
:105A4000807F03D3FFE70120019019E0009801381F
:105A50004EF21401CEF2000108604FF0FF300F212A
:105A600000F07EFF4EF21801CEF200010020086027
:105A70004EF21002CEF20002072111600190FFE702
:105A8000019802B080BD000080B5FBF725FEFDF750
:105A900005FA80BD40F61041C4F201014FF080705C
:105AA000086080200860704740F61041C4F2010190
:105AB0004FF4807008604FF40000086070470000E9
:105AC00080B582B040F61041C4F2010101914FF05F
:105AD000807008603220FBF7F5FE01998020086095
